:020000040000FA
:100000000C945C000C9479000C9479000C947900A9
:100010000C9479000C9479000C9479000C9479007C
:100020000C9479000C9456030C9479000C9479008C
:100030000C9479000C9479000C9479000C9479005C
:100040000C94F1010C9479000C9479000C947900D3
:100050000C9479000C9479000C9479000C9479003C
:100060000C943B020C94790000000008000201008F
:100070000003040700000000000000000000000072
:10008000250028002B0000000000240027002A0083
:10009000040404040404040402020202020203032E
:1000A0000303030301020408102040800102040836
:1000B000102001020408102011241FBECFEFD8E049
:1000C000DEBFCDBF15E0A0E0B1E0E2E2F0E102C0AA
:1000D00005900D92AE33B107D9F726E0AEE3B5E057
:1000E00001C01D92A835B207E1F70E9454040C9498
:1000F0000F080C94000090E0FC01EC55FF4F249198
:1001000080579F4FFC018491882399F090E0880FDD
:10011000991FFC01EA57FF4FA591B491FC01E458E7
:10012000FF4F859194918FB7F894EC91E22BEC936B
:100130008FBF089590E0FC01E859FF4F2491FC0126
:10014000EC55FF4F3491FC01E057FF4FE491EE2353
:10015000C9F0222339F0233001F1A8F4213019F13C
:10016000223029F1F0E0EE0FFF1FE458FF4FA59178
:10017000B4918FB7F894EC91611126C030953E236D
:100180003C938FBF08952730A9F02830C9F0243060
:1001900049F7809180008F7D03C0809180008F7728
:1001A00080938000DFCF84B58F7784BDDBCF84B5AB
:1001B0008F7DFBCF8091B0008F778093B000D2CF3E
:1001C0008091B0008F7DF9CF3E2BDACF3FB7F89406
:1001D0008091540690915506A0915606B09157060D
:1001E00026B5A89B05C02F3F19F00196A11DB11D92
:1001F0003FBFBA2FA92F982F8827BC01CD01620FCE
:10020000711D811D911D42E0660F771F881F991F88
:100210004A95D1F7089520916D05260F3327331F96
:1002200021323105ECF420919105FC0190E080E051
:10023000243069F082E00895A0916D052191AC0110
:10024000435B5A4FA40FB52FB11D2C93019686170F
:1002500098F380916D05680F60936D0580E00895B7
:1002600081E0089508958FEF9FEF08958FEF9FEF3E
:1002700008958091460590E09195819591090895A2
:10028000CF93DF93CB01EA01642F0E940B01CE01D3
:10029000DF91CF910895CF93DF931F92CDB7DEB753
:1002A000698361E0CE0101960E940B0181E090E03C
:1002B0000F90DF91CF91089590E080E008958EBD7A
:1002C00000000DB407FEFDCF8EB50895CF93DF93E8
:1002D000D82FC92F60E08AE00E949A008C2F8F707F
:1002E00080630E945F018D2F0E945F0161E08AE0C0
:1002F000DF91CF910C949A001F93CF93DF9385EDFC
:100300008093BC008091490590914A05A0914B05CE
:10031000B0914C050796A11DB11D23E0B695A79598
:10032000979587952A95D1F72091BC0024FD03C0AD
:100330001092910552C04091490550914A05609133
:100340004B0570914C05452B462B472B69F30097C5
:10035000A105B10541F02AE22A95F1F700C0019705
:10036000A109B109E1CF80914805C1E0C0934705DB
:10037000882399F1D091B8001091BA008091BC0007
:100380008A7B8093BC0060E082E10E949A0060E07A
:1003900083E10E949A0010929105C09393051092F8
:1003A000920561E082E10E949A0061E083E10E948F
:1003B0009A008091B9008E7F8093B9008091B90036
:1003C0008D7F8093B90088E48093B80085E48093A2
:1003D000BC001093BA00D093B800DF91CF911F9169
:1003E00008951F920F920FB60F9211242F933F93EF
:1003F0008F939F93AF93BF93809150069091510636
:10040000A0915206B091530630914F0623E0230F7E
:100410002D3758F50196A11DB11D20934F068093ED
:10042000500690935106A0935206B09353068091C4
:10043000540690915506A0915606B0915706019624
:10044000A11DB11D8093540690935506A0935606A6
:10045000B0935706BF91AF919F918F913F912F918C
:100460000F900FBE0F901F90189526E8230F02964D
:10047000A11DB11DD2CF1F920F920FB60F92112462
:100480002F933F934F935F936F937F938F939F939C
:10049000AF93BF93EF93FF938091B900887F80362D
:1004A00009F44AC0F0F5883209F4A5C018F5803186
:1004B00009F499C0B8F4882309F4F5C0883009F428
:1004C00092C0FF91EF91BF91AF919F918F917F91DA
:1004D0006F915F914F913F912F910F900FBE0F90B1
:1004E0001F901895883109F486C0803251F78093A7
:1004F000900514C0803409F49BC040F48033B9F3F4
:100500008833F9F68093900585ECAEC0803509F408
:1005100083C0883509F494C0883499F60E947C0120
:10052000D0CF883909F48AC038F5883729F050F4DB
:10053000883611F0803729F683E080939105109278
:100540008F0555C0883809F479C0803919F0803892
:1005500009F0B7CF80918F05803208F06FC0E0912D
:100560008F0581E08E0F80938F058091BB00F0E0B6
:10057000E159FA4F80833BC0803B39F0D0F4803A98
:1005800009F477C0883A09F09CCF84E08093910504
:1005900010926E0510926D05F0E0E0E009958091F3
:1005A0006D0581110FC081E080936D0510924D059E
:1005B00009C0803C09F4A8CF883C09F4A5CF883B4A
:1005C00009F07FCFE0916E0581E08E0F80936E057C
:1005D000F0E0E35BFA4F80818093BB0090916E0561
:1005E00080916D0529C08091B6058093BB0085EC94
:1005F0008093BC0066CF9091B5058091B4059817A3
:1006000058F5E091B50581E08E0F8093B505F0E0D7
:10061000EC56FA4F8081E9CFE091B50581E08E0F6D
:100620008093B5058091BB00F0E0EC56FA4F8083D3
:100630009091B5058091B4059817C8F285E8D8CF98
:10064000E091B50581E08E0F8093B5058091BB00E8
:10065000F0E0EC56FA4F80838091930581115ECFD4
:1006600081E08093920584EA8093BC00109291050A
:1006700028CF85EC8093BC001092910580918F0566
:10068000803230F4E0918F05F0E0E159FA4F1082AA
:1006900060918F0570E08FE695E0F0E0E0E009956D
:1006A00010928F050ECF1092900538CF1F920F92A7
:1006B0000FB60F921124FF920F931F932F933F9326
:1006C0004F935F936F937F938F939F93AF93BF935A
:1006D000CF93DF93EF93FF938091B8058093B2009F
:1006E00080914405909145058130910509F45BC0E6
:1006F00028F1029791F180913E0590913F05019676
:100700008233910508F06DC090933F0580933E05BC
:10071000FF91EF91DF91CF91BF91AF919F918F9119
:100720007F916F915F914F913F912F911F910F9109
:10073000FF900F900FBE0F901F90189510924305D9
:1007400010924205109241051092400510923F050B
:1007500010923E0582E090E021C0C0914205D09108
:100760004305FE01EE0FFF1FE050FF4F8081918196
:100770000E9466012196CF3182E0D80728F4D093F9
:100780004305C0934205B7CF10924305109242052E
:100790008BEA93E00E94660181E090E0909345052A
:1007A00080934405A8CF8091400590914105019622
:1007B0009093410580934005B0E0A0E04091BA05D8
:1007C0005091BB056091BC057091BD0584179507DC
:1007D000A607B70708F48FCF109241051092400585
:1007E000B9CF10923F0510923E052091C20530917D
:1007F000C305E8EEF3E0C901BF010E94FB07162F15
:100800006E9FC0016F9F900D7E9F900D1124281B3D
:10081000390B611101C018E7C90164E670E00E945C
:10082000FB07062F84E6689F201931091124183729
:1008300019F4611101C008E7C9016AE070E00E9483
:10084000FB07F62EE9018AE0689FC019D10911243F
:10085000183731F4083721F4611102C088E7F82E07
:1008600060E089E00E949A0086E70E945F018AE7C3
:100870000E945F0180E00E945F01812F0E945F0162
:10088000802F0E945F018F2D0E945F018C2F0E949C
:100890005F0187E70E945F0184E00E945F0161E0E1
:1008A00089E00E949A0034CF789484B5826084BD38
:1008B00084B5816084BD85B5826085BD85B5816064
:1008C00085BD80916E00816080936E0010928100E2
:1008D000809181008260809381008091810081609D
:1008E000809381008091800081608093800080915E
:1008F000B10084608093B1008091B00081608093EA
:10090000B00080917A00846080937A0080917A00B0
:10091000826080937A0080917A00816080937A006F
:1009200080917A00806880937A001092C10089E0FB
:100930000E947B008AE00E947B008BE00E947B008B
:100940008DE00E947B00CFB7F8948091B7058111AC
:1009500024C0EAE9F0E08491EEEAF0E09491E82F17
:10096000F0E0EE0FFF1FEA57FF4FA591B491EC9115
:10097000E92321F461E08AE00E949A008AE00E9463
:100980007B008CB580618CBD8CB580648CBD8DE0A6
:100990000E947B008BE00E947B008091B7058F5FF7
:1009A0008093B705CFBF8CB5837F8CBD8CB58C7F12
:1009B00082608CBD8DB58E7F8DBD8CB58F7D8CBDDD
:1009C0008CE291E090934C0680934B0680E594E096
:1009D00090934E0680934D06809170008E7F809399
:1009E00070008091B0008C7F8093B0008091B10046
:1009F000877F8093B1008091B6008F7D8093B60091
:100A0000809170008D7F809370008091B10085602F
:100A10008093B1008091B1008D7F8093B10083E815
:100A200090E09093B9058093B80583E88093B20075
:100A30008091700081608093700010E4CC24CA948F
:100A400043E0D42EE12CF12CC0E0D0E010937C00E8
:100A500080917A00806480937A0080917A0086FD8C
:100A6000FCCFA0917800B091790080904B069090D7
:100A70004C06B12CA12C20914D0630914E0650E031
:100A800040E0281939094A095B090E942606A70196
:100A900096010E94FC05820E931EA41EB51E909224
:100AA0004A0680924906E091480681E08E0F8093C5
:100AB000480624E0E29FF0011124E853FA4FA50113
:100AC0009401442755272083318342835383803206
:100AD00011F410924806E8ECF5E080E090E0DC01CB
:100AE0004191519161917191840F951FA61FB71F7C
:100AF00026E0E834F207A1F725E0B695A79597958B
:100B000087952A95D1F78093C4059093C505A09346
:100B1000C605B093C705F8948091C4059091C505AA
:100B20009093C3058093C2057894609149067091B3
:100B30004A0690E080E00E946D0720E030E040E24D
:100B400051E40E94CC066093BE057093BF0580936C
:100B5000C0059093C105F8942091BE053091BF0562
:100B60004091C0055091C10560E070E68AE697E4C7
:100B70000E94CC060E943E0790E080E00E946D0734
:100B800020E030EC47E054E40E945F060E943E07FC
:100B90006093BA057093BB058093BC059093BD0527
:100BA00078940E94E6002B013C0134E1832E912CC5
:100BB000A12CB12C0E94E6006419750986099709D9
:100BC000683E734081059105A8F381E0881A910879
:100BD000A108B10898EE490E93E0591E611C711CE2
:100BE00081149104A104B10429F7209709F42ECFB0
:100BF0000E9400002BCF0895052E97FB1EF4009451
:100C00000E94130657FD07D00E942E0607FC03D052
:100C10004EF40C94130650954095309521953F4F16
:100C20004F4F5F4F089590958095709561957F4FD8
:100C30008F4F9F4F08950E945006A59F900DB49F1F
:100C4000900DA49F800D911D11240895B7FF0C9461
:100C50001B060E941B06821B930B0895A1E21A2E0D
:100C6000AA1BBB1BFD010DC0AA1FBB1FEE1FFF1F50
:100C7000A217B307E407F50720F0A21BB30BE40BA0
:100C8000F50B661F771F881F991F1A9469F76095E7
:100C90007095809590959B01AC01BD01CF010895A1
:100CA000A29FB001B39FC001A39F700D811D1124AD
:100CB000911DB29F700D811D1124911D08955058F2
:100CC000BB27AA270E9477060C94C1070E94B3078E
:100CD00038F00E94BA0720F039F49F3F19F426F447
:100CE0000C94B0070EF4E095E7FB0C94AA07E92FEB
:100CF0000E94D20758F3BA17620773078407950753
:100D000020F079F4A6F50C94F4070EF4E0950B2E80
:100D1000BA2FA02D0B01B90190010C01CA01A0014D
:100D20001124FF27591B99F0593F50F4503E68F1A8
:100D30001A16F040A22F232F342F4427585FF3CFE9
:100D4000469537952795A795F0405395C9F77EF4BA
:100D50001F16BA0B620B730B840BBAF09150A1F003
:100D6000FF0FBB1F661F771F881FC2F70EC0BA0F89
:100D7000621F731F841F48F4879577956795B79511
:100D8000F7959E3F08F0B0CF9395880F08F099270C
:100D9000EE0F9795879508950E94E0060C94C10781
:100DA0000E94BA0758F00E94B30740F029F45F3F51
:100DB00029F00C94AA0751110C94F5070C94B00774
:100DC0000E94D20768F39923B1F3552391F3951B41
:100DD000550BBB27AA2762177307840738F09F5F5C
:100DE0005F4F220F331F441FAA1FA9F335D00E2EC9
:100DF0003AF0E0E832D091505040E695001CCAF736
:100E00002BD0FE2F29D0660F771F881FBB1F2617F8
:100E100037074807AB07B0E809F0BB0B802DBF01CF
:100E2000FF2793585F4F3AF09E3F510578F00C949E
:100E3000AA070C94F5075F3FE4F3983ED4F3869538
:100E400077956795B795F7959F5FC9F7880F911DBF
:100E50009695879597F90895E1E0660F771F881FAB
:100E6000BB1F621773078407BA0720F0621B730B5E
:100E7000840BBA0BEE1F88F7E09508950E94DA07FD
:100E800088F09F5798F0B92F9927B751B0F0E1F04B
:100E9000660F771F881F991F1AF0BA95C9F714C0FB
:100EA000B13091F00E94F407B1E008950C94F4077A
:100EB000672F782F8827B85F39F0B93FCCF3869534
:100EC00077956795B395D9F73EF490958095709591
:100ED00061957F4F8F4F9F4F0895E89409C097FB0E
:100EE0003EF490958095709561957F4F8F4F9F4F01
:100EF0009923A9F0F92F96E9BB279395F695879545
:100F000077956795B795F111F8CFFAF4BB0F11F407
:100F100060FF1BC06F5F7F4F8F4F9F4F16C08823AE
:100F200011F096E911C0772321F09EE8872F762FE4
:100F300005C0662371F096E8862F70E060E02AF025
:100F40009A95660F771F881FDAF7880F9695879511
:100F500097F9089597F99F6780E870E060E0089539
:100F60009FEF80EC089500240A94161617061806C1
:100F70000906089500240A9412161306140605069D
:100F80000895092E0394000C11F4882352F0BB0F2E
:100F900040F4BF2B11F460FF04C06F5F7F4F8F4F91
:100FA0009F4F089557FD9058440F551F59F05F3FCC
:100FB00071F04795880F97FB991F61F09F3F79F07B
:100FC00087950895121613061406551FF2CF4695FD
:100FD000F1DF08C0161617061806991FF1CF86957F
:100FE0007105610508940895E894BB276627772763
:100FF000CB0197F90895AA1BBB1B51E107C0AA1F9B
:10100000BB1FA617B70710F0A61BB70B881F991FA9
:101010005A95A9F780959095BC01CD010895F89453
:10102000FFCFAB03AC03AD03AE03B003B103B20318
:10103000B303B703BC03C203C703CD03D203D70373
:10104000DD03E203E803ED03F70300040A041304DD
:101050001D04260433043F044C0458046104660450
:101060006B04700475047A047F0484048C04940473
:101070009B04A304AA04B204B904C004C604CD04AA
:10108000D304D904E004E604EC04F004F404F70407
:10109000FB04FF0403050705060504050105FF041D
:1010A000FC04FA04F704F404F204EF04ED04EA0487
:1010B000E804E504E304DE04DA04D504D004CB0438
:1010C000C604C204BF04BB04B704B304AF04AB043A
:1010D000A704A0049A0493048D04870480047A046E
:1010E000750470046A04650460045B0456044F04CC
:1010F000480440043804310429042104190410046C
:101100000604FD03F403EC03E303DB03D603D2037D
:10111000CE03CA03C603C303BF03BB03B803B503AF
:10112000B103AE03AB03AA03AB03AC03AD03AF0340
:10113000B003B103B203B203B203B203B203B2030A
:10114000B203B203B303B603B803BA03BC03BE03CE
:10115000C003C203C403C503C503C503C503C50358
:10116000C503C303C003BD03BA03B703B303B0038E
:10117000AD03AA03A4039E03980391038B03850385
:101180007E03750361033403DD025E022B02FB0163
:101190007802B902F00227038003D103FF032D0474
:1011A0006704D5044305B1052508C608AA09F50951
:1011B000230A510A870A0B0C3F0C730C910CF30C99
:1011C0004B0DA40DFD0DDC0E070F320FD60E730D67
:1011D0007D0DE10CED0B030BFA0AB108D208640790
:1011E000C6065906E603870363017801CB001E009B
:1011F00021003D005A007700A000EE0013012401F9
:1012000035014501570173018F01AD01E4011E0253
:101210005A028C02BF02F6022203460358036B03F4
:101220007F039503AA03C703F8030B0411041704F3
:101230001E0424042A042A04280425042204200469
:101240001D041B0418041604130411040E040B04DB
:101250000904060404040104FE03FB03F903F60376
:10126000F303F003EE03EB03E903E703E603E40310
:10127000E203E103DF03DE03DC03DA03D903D70370
:10128000D503D203D003CD03CB03C803C603C303E6
:10129000C303C303C303C303C303C303C303C3031E
:1012A000C303C303C303C303C303C303C303C3030E
:1012B000C303C303C303C403C503C603C703C803EF
:1012C000C903CA03CB03CC03CE03D003D203D40398
:1012D000D703D903DB03DD03DF03E103E303E50306
:1012E000E703EA03EE03F303F703FB03FF0304043E
:1012F00008040C04100415041A041F042304280411
:101300002D0434043A04400447044D0453045A04A1
:10131000600466046C0475047D0486048E049504E0
:101320009A049F04A404A904AE04B304B804BE0440
:10133000C504CB04D104D804DE04E204E604EB04C3
:10134000EF04F504FE0406050E0517051D0523052B
:101350002A05300536053D053F0541054305450590
:10136000470549054B054D054F054F054F054F05F1
:101370004F054E054C054A05480546054305410500
:101380003F053D053B0538053605340531052F057C
:101390002C052A0528052505230520051B0515050F
:1013A0000E0508050105FB04F604F104EC04E8044D
:1013B000E304DE04D804D104CB04C504BE04B8049D
:1013C000B104AA04A2049A0492048A0482047C044C
:1013D0007804740470046B04670463045E045A04A4
:1013E00053044B0442043A0432042D04280422041A
:1013F0001D04180413040E040A0405040104FD036B
:10140000F903F503F103ED03E903E503E203DE036A
:10141000DF03E003E203E403E503E703E603E50398
:10142000E403E303E203E103DF03DE03DD03DD03A3
:10143000DD03DD03DD03DD03DD03DC03DA03D803B5
:10144000D703D503D403D603D803DA03DC03DE03C2
:10145000E103E303E503E703EA03ED03F003F40329
:107E0000112484B714BE81FFF0D085E080938100F7
:107E100082E08093C00088E18093C10086E0809377
:107E2000C20080E18093C4008EE0C9D0259A86E02C
:107E300020E33CEF91E0309385002093840096BBD3
:107E4000B09BFECF1D9AA8958150A9F7CC24DD24C4
:107E500088248394B5E0AB2EA1E19A2EF3E0BF2EE7
:107E6000A2D0813461F49FD0082FAFD0023811F036
:107E7000013811F484E001C083E08DD089C08234E0
:107E800011F484E103C0853419F485E0A6D080C0E4
:107E9000853579F488D0E82EFF2485D0082F10E0AE
:107EA000102F00270E291F29000F111F8ED06801E7
:107EB0006FC0863521F484E090D080E0DECF843638
:107EC00009F040C070D06FD0082F6DD080E0C81688
:107ED00080E7D80618F4F601B7BEE895C0E0D1E017
:107EE00062D089930C17E1F7F0E0CF16F0E7DF06D8
:107EF00018F0F601B7BEE89568D007B600FCFDCFD4
:107F0000A601A0E0B1E02C9130E011968C91119780
:107F100090E0982F8827822B932B1296FA010C0160
:107F200087BEE89511244E5F5F4FF1E0A038BF0790
:107F300051F7F601A7BEE89507B600FCFDCF97BE46
:107F4000E89526C08437B1F42ED02DD0F82E2BD052
:107F50003CD0F601EF2C8F010F5F1F4F84911BD097
:107F6000EA94F801C1F70894C11CD11CFA94CF0C13
:107F7000D11C0EC0853739F428D08EE10CD085E9AC
:107F80000AD08FE07ACF813511F488E018D01DD067
:107F900080E101D065CF982F8091C00085FFFCCF94
:107FA0009093C60008958091C00087FFFCCF809118
:107FB000C00084FD01C0A8958091C6000895E0E648
:107FC000F0E098E1908380830895EDDF803219F02E
:107FD00088E0F5DFFFCF84E1DECF1F93182FE3DFCA
:107FE0001150E9F7F2DF1F91089580E0E8DFEE27F6
:047FF000FF270994CA
:027FFE00040479
:00000001FF
